{
  "_format": "hh-sol-artifact-1",
  "contractName": "Election",
  "sourceName": "contracts/Election.sol",
  "abi": [
    {
      "inputs": [
        {
          "internalType": "address",
          "name": "_admin",
          "type": "address"
        },
        {
          "internalType": "uint256",
          "name": "_startTimestamp",
          "type": "uint256"
        },
        {
          "internalType": "uint256",
          "name": "_endTimestamp",
          "type": "uint256"
        }
      ],
      "stateMutability": "nonpayable",
      "type": "constructor"
    },
    {
      "anonymous": false,
      "inputs": [
        {
          "indexed": true,
          "internalType": "address",
          "name": "admin",
          "type": "address"
        }
      ],
      "name": "AdminCreated",
      "type": "event"
    },
    {
      "anonymous": false,
      "inputs": [
        {
          "indexed": false,
          "internalType": "string",
          "name": "name",
          "type": "string"
        },
        {
          "indexed": false,
          "internalType": "string",
          "name": "party",
          "type": "string"
        }
      ],
      "name": "CandidateAdded",
      "type": "event"
    },
    {
      "anonymous": false,
      "inputs": [
        {
          "indexed": false,
          "internalType": "string",
          "name": "name",
          "type": "string"
        },
        {
          "indexed": false,
          "internalType": "string",
          "name": "party",
          "type": "string"
        }
      ],
      "name": "CandidateDisqualified",
      "type": "event"
    },
    {
      "anonymous": false,
      "inputs": [],
      "name": "EndElection",
      "type": "event"
    },
    {
      "anonymous": false,
      "inputs": [
        {
          "indexed": true,
          "internalType": "address",
          "name": "official",
          "type": "address"
        }
      ],
      "name": "OfficialAdded",
      "type": "event"
    },
    {
      "anonymous": false,
      "inputs": [
        {
          "indexed": true,
          "internalType": "address",
          "name": "official",
          "type": "address"
        }
      ],
      "name": "OfficialRemoved",
      "type": "event"
    },
    {
      "anonymous": false,
      "inputs": [
        {
          "indexed": false,
          "internalType": "uint256",
          "name": "voter",
          "type": "uint256"
        },
        {
          "indexed": false,
          "internalType": "string",
          "name": "choice",
          "type": "string"
        },
        {
          "indexed": false,
          "internalType": "string",
          "name": "party",
          "type": "string"
        }
      ],
      "name": "VoteCasted",
      "type": "event"
    },
    {
      "inputs": [
        {
          "internalType": "string",
          "name": "_name",
          "type": "string"
        },
        {
          "internalType": "string",
          "name": "_party",
          "type": "string"
        }
      ],
      "name": "addCandidate",
      "outputs": [],
      "stateMutability": "nonpayable",
      "type": "function"
    },
    {
      "inputs": [
        {
          "internalType": "address",
          "name": "official",
          "type": "address"
        }
      ],
      "name": "addOfficial",
      "outputs": [],
      "stateMutability": "nonpayable",
      "type": "function"
    },
    {
      "inputs": [],
      "name": "admin",
      "outputs": [
        {
          "internalType": "address",
          "name": "",
          "type": "address"
        }
      ],
      "stateMutability": "view",
      "type": "function"
    },
    {
      "inputs": [
        {
          "internalType": "uint256",
          "name": "",
          "type": "uint256"
        }
      ],
      "name": "candidates",
      "outputs": [
        {
          "internalType": "string",
          "name": "name",
          "type": "string"
        },
        {
          "internalType": "string",
          "name": "politicalParty",
          "type": "string"
        },
        {
          "internalType": "uint256",
          "name": "id",
          "type": "uint256"
        },
        {
          "internalType": "uint256",
          "name": "votes",
          "type": "uint256"
        }
      ],
      "stateMutability": "view",
      "type": "function"
    },
    {
      "inputs": [],
      "name": "checkIfAddressUsed",
      "outputs": [
        {
          "internalType": "bool",
          "name": "",
          "type": "bool"
        }
      ],
      "stateMutability": "view",
      "type": "function"
    },
    {
      "inputs": [],
      "name": "checkIfOfficial",
      "outputs": [
        {
          "internalType": "bool",
          "name": "",
          "type": "bool"
        }
      ],
      "stateMutability": "view",
      "type": "function"
    },
    {
      "inputs": [
        {
          "internalType": "uint256",
          "name": "nin",
          "type": "uint256"
        }
      ],
      "name": "checkIfVoted",
      "outputs": [
        {
          "internalType": "bool",
          "name": "",
          "type": "bool"
        }
      ],
      "stateMutability": "view",
      "type": "function"
    },
    {
      "inputs": [
        {
          "internalType": "uint256",
          "name": "newTimestamp",
          "type": "uint256"
        }
      ],
      "name": "editEndTimestamp",
      "outputs": [],
      "stateMutability": "nonpayable",
      "type": "function"
    },
    {
      "inputs": [
        {
          "internalType": "uint256",
          "name": "newTimestamp",
          "type": "uint256"
        }
      ],
      "name": "editStartTimestamp",
      "outputs": [],
      "stateMutability": "nonpayable",
      "type": "function"
    },
    {
      "inputs": [],
      "name": "endElection",
      "outputs": [],
      "stateMutability": "nonpayable",
      "type": "function"
    },
    {
      "inputs": [],
      "name": "getAllCandidates",
      "outputs": [
        {
          "components": [
            {
              "internalType": "string",
              "name": "name",
              "type": "string"
            },
            {
              "internalType": "string",
              "name": "politicalParty",
              "type": "string"
            },
            {
              "internalType": "uint256",
              "name": "id",
              "type": "uint256"
            },
            {
              "internalType": "uint256",
              "name": "votes",
              "type": "uint256"
            }
          ],
          "internalType": "struct Election.Candidate[]",
          "name": "",
          "type": "tuple[]"
        }
      ],
      "stateMutability": "view",
      "type": "function"
    },
    {
      "inputs": [
        {
          "internalType": "uint256",
          "name": "id",
          "type": "uint256"
        }
      ],
      "name": "getCandidateVotes",
      "outputs": [
        {
          "internalType": "uint256",
          "name": "",
          "type": "uint256"
        }
      ],
      "stateMutability": "view",
      "type": "function"
    },
    {
      "inputs": [],
      "name": "getElectionCommencementDate",
      "outputs": [
        {
          "internalType": "uint256",
          "name": "",
          "type": "uint256"
        }
      ],
      "stateMutability": "view",
      "type": "function"
    },
    {
      "inputs": [],
      "name": "getElectionEndDate",
      "outputs": [
        {
          "internalType": "uint256",
          "name": "",
          "type": "uint256"
        }
      ],
      "stateMutability": "view",
      "type": "function"
    },
    {
      "inputs": [],
      "name": "getTopVotedCandidate",
      "outputs": [
        {
          "components": [
            {
              "internalType": "string",
              "name": "name",
              "type": "string"
            },
            {
              "internalType": "string",
              "name": "politicalParty",
              "type": "string"
            },
            {
              "internalType": "uint256",
              "name": "id",
              "type": "uint256"
            },
            {
              "internalType": "uint256",
              "name": "votes",
              "type": "uint256"
            }
          ],
          "internalType": "struct Election.Candidate",
          "name": "",
          "type": "tuple"
        }
      ],
      "stateMutability": "view",
      "type": "function"
    },
    {
      "inputs": [],
      "name": "getTotalVotesCasted",
      "outputs": [
        {
          "internalType": "uint256",
          "name": "",
          "type": "uint256"
        }
      ],
      "stateMutability": "view",
      "type": "function"
    },
    {
      "inputs": [],
      "name": "isAdmin",
      "outputs": [
        {
          "internalType": "bool",
          "name": "",
          "type": "bool"
        }
      ],
      "stateMutability": "view",
      "type": "function"
    },
    {
      "inputs": [
        {
          "internalType": "uint256",
          "name": "",
          "type": "uint256"
        }
      ],
      "name": "officials",
      "outputs": [
        {
          "internalType": "address",
          "name": "",
          "type": "address"
        }
      ],
      "stateMutability": "view",
      "type": "function"
    },
    {
      "inputs": [
        {
          "internalType": "uint256",
          "name": "id",
          "type": "uint256"
        }
      ],
      "name": "removeCandidate",
      "outputs": [],
      "stateMutability": "nonpayable",
      "type": "function"
    },
    {
      "inputs": [
        {
          "internalType": "address",
          "name": "official",
          "type": "address"
        }
      ],
      "name": "removeOfficial",
      "outputs": [],
      "stateMutability": "nonpayable",
      "type": "function"
    },
    {
      "inputs": [
        {
          "components": [
            {
              "internalType": "uint256",
              "name": "nin",
              "type": "uint256"
            },
            {
              "components": [
                {
                  "internalType": "string",
                  "name": "name",
                  "type": "string"
                },
                {
                  "internalType": "string",
                  "name": "politicalParty",
                  "type": "string"
                },
                {
                  "internalType": "uint256",
                  "name": "id",
                  "type": "uint256"
                },
                {
                  "internalType": "uint256",
                  "name": "votes",
                  "type": "uint256"
                }
              ],
              "internalType": "struct Election.Candidate",
              "name": "choice",
              "type": "tuple"
            }
          ],
          "internalType": "struct Election.Voter",
          "name": "_voter",
          "type": "tuple"
        }
      ],
      "name": "vote",
      "outputs": [
        {
          "components": [
            {
              "internalType": "bool",
              "name": "success",
              "type": "bool"
            },
            {
              "internalType": "string",
              "name": "message",
              "type": "string"
            }
          ],
          "internalType": "struct Election.VoteReturnType",
          "name": "",
          "type": "tuple"
        }
      ],
      "stateMutability": "nonpayable",
      "type": "function"
    },
    {
      "inputs": [
        {
          "internalType": "uint256",
          "name": "",
          "type": "uint256"
        }
      ],
      "name": "voters",
      "outputs": [
        {
          "internalType": "uint256",
          "name": "nin",
          "type": "uint256"
        },
        {
          "components": [
            {
              "internalType": "string",
              "name": "name",
              "type": "string"
            },
            {
              "internalType": "string",
              "name": "politicalParty",
              "type": "string"
            },
            {
              "internalType": "uint256",
              "name": "id",
              "type": "uint256"
            },
            {
              "internalType": "uint256",
              "name": "votes",
              "type": "uint256"
            }
          ],
          "internalType": "struct Election.Candidate",
          "name": "choice",
          "type": "tuple"
        }
      ],
      "stateMutability": "view",
      "type": "function"
    }
  ],
  "bytecode": "0x608060405260006005553480156200001657600080fd5b50604051620033f7380380620033f783398181016040528101906200003c919062000210565b600073ffffffffffffffffffffffffffffffffffffffff168373ffffffffffffffffffffffffffffffffffffffff1603620000ae576040517f08c379a0000000000000000000000000000000000000000000000000000000008152600401620000a590620002cd565b60405180910390fd5b82600260006101000a81548173ffffffffffffffffffffffffffffffffffffffff021916908373ffffffffffffffffffffffffffffffffffffffff160217905550600260009054906101000a900473ffffffffffffffffffffffffffffffffffffffff1673ffffffffffffffffffffffffffffffffffffffff167f068138ab5baa0a8a7aadb0e73d78b0b40417344c7bba0f4387479260cc462d6660405160405180910390a28160008190555080600181905550505050620002ef565b600080fd5b600073ffffffffffffffffffffffffffffffffffffffff82169050919050565b60006200019d8262000170565b9050919050565b620001af8162000190565b8114620001bb57600080fd5b50565b600081519050620001cf81620001a4565b92915050565b6000819050919050565b620001ea81620001d5565b8114620001f657600080fd5b50565b6000815190506200020a81620001df565b92915050565b6000806000606084860312156200022c576200022b6200016b565b5b60006200023c86828701620001be565b93505060206200024f86828701620001f9565b92505060406200026286828701620001f9565b9150509250925092565b600082825260208201905092915050565b7f41646d696e2068617320746f20626520612076616c6964206164647265737300600082015250565b6000620002b5601f836200026c565b9150620002c2826200027d565b602082019050919050565b60006020820190508181036000830152620002e881620002a6565b9050919050565b6130f880620002ff6000396000f3fe608060405234801561001057600080fd5b50600436106101425760003560e01c806385cc079b116100b8578063b6db75a01161007c578063b6db75a014610364578063da58c7d914610382578063da5a97dd146103b3578063e6c1748f146103d1578063ec8a839d146103ef578063f851a4401461040d57610142565b806385cc079b1461029a578063866163c0146102ca57806397ad6afd146102fa578063a39aeaa41461032a578063ac840db01461034857610142565b8063367981cb1161010a578063367981cb146101ec578063457763da146102085780634ca5c3c0146102265780634fea4954146102445780635949c4301461026057806359f784681461029057610142565b806309e9d7e2146101475780630c0636261461016357806326541b561461017f5780632e6997fe1461019b5780633477ee2e146101b9575b600080fd5b610161600480360381019061015c9190611f02565b61042b565b005b61017d60048036038101906101789190611f02565b61071d565b005b61019960048036038101906101949190612075565b6107b7565b005b6101a3610980565b6040516101b091906122a7565b60405180910390f35b6101d360048036038101906101ce9190611f02565b610b5f565b6040516101e39493929190612322565b60405180910390f35b61020660048036038101906102019190611f02565b610caf565b005b610210610d8b565b60405161021d9190612375565b60405180910390f35b61022e610d98565b60405161023b91906123ab565b60405180910390f35b61025e60048036038101906102599190612424565b610dec565b005b61027a60048036038101906102759190611f02565b61113f565b60405161028791906123ab565b60405180910390f35b610298611169565b005b6102b460048036038101906102af9190612577565b61122e565b6040516102c1919061260c565b60405180910390f35b6102e460048036038101906102df9190611f02565b611582565b6040516102f19190612375565b60405180910390f35b610314600480360381019061030f9190611f02565b611662565b604051610321919061263d565b60405180910390f35b6103326116a1565b60405161033f9190612375565b60405180910390f35b610362600480360381019061035d9190612424565b6116ab565b005b61036c61183c565b60405161037991906123ab565b60405180910390f35b61039c60048036038101906103979190611f02565b611894565b6040516103aa9291906126c2565b60405180910390f35b6103bb611a0a565b6040516103c891906126f2565b60405180910390f35b6103d9611d94565b6040516103e691906123ab565b60405180910390f35b6103f7611de8565b6040516104049190612375565b60405180910390f35b610415611df1565b604051610422919061263d565b60405180910390f35b600260009054906101000a900473ffffffffffffffffffffffffffffffffffffffff1673ffffffffffffffffffffffffffffffffffffffff163373ffffffffffffffffffffffffffffffffffffffff16146104bb576040517f08c379a00000000000000000000000000000000000000000000000000000000081526004016104b290612786565b60405180910390fd5b6007600082815260200190815260200160002060009054906101000a900460ff1661051b576040517f08c379a000000000000000000000000000000000000000000000000000000000815260040161051290612818565b60405180910390fd5b60006007600083815260200190815260200160002060006101000a81548160ff02191690831515021790555060005b600160068054905061055c9190612867565b8110156106be57600681815481106105775761057661289b565b5b90600052602060002090600402016002015482036106ab577ff652e6feb25bc41b639707c993442c51ab3b8ea52b0a5a0f51abaa854211051d600682815481106105c4576105c361289b565b5b9060005260206000209060040201600001600683815481106105e9576105e861289b565b5b90600052602060002090600402016001016040516106089291906129c3565b60405180910390a1600660016006805490506106249190612867565b815481106106355761063461289b565b5b9060005260206000209060040201600682815481106106575761065661289b565b5b9060005260206000209060040201600082018160000190816106799190612ba7565b506001820181600101908161068e9190612ba7565b5060028201548160020155600382015481600301559050506106be565b80806106b690612c8f565b91505061054a565b5060068054806106d1576106d0612cd7565b5b6001900381819060005260206000209060040201600080820160006106f69190611e17565b6001820160006107069190611e17565b600282016000905560038201600090555050905550565b600260009054906101000a900473ffffffffffffffffffffffffffffffffffffffff1673ffffffffffffffffffffffffffffffffffffffff163373ffffffffffffffffffffffffffffffffffffffff16146107ad576040517f08c379a00000000000000000000000000000000000000000000000000000000081526004016107a490612786565b60405180910390fd5b8060008190555050565b600260009054906101000a900473ffffffffffffffffffffffffffffffffffffffff1673ffffffffffffffffffffffffffffffffffffffff163373ffffffffffffffffffffffffffffffffffffffff1614610847576040517f08c379a000000000000000000000000000000000000000000000000000000000815260040161083e90612786565b60405180910390fd5b61084f611e57565b8281600001819052508181602001819052506000816060018181525050600160055461087b9190612d06565b8160400181815250506001600760008360400151815260200190815260200160002060006101000a81548160ff021916908315150217905550600681908060018154018082558091505060019003906000526020600020906004020160009091909190915060008201518160000190816108f59190612d3a565b50602082015181600101908161090b9190612d3a565b50604082015181600201556060820151816003015550506005600081548092919061093590612c8f565b91905055507f6184463fde61a3e60869da6c5a223163f4b7548f805e17f865da2e8d3828d33781600001518260200151604051610973929190612e0c565b60405180910390a1505050565b60606000600680549050036109ca576040517f08c379a00000000000000000000000000000000000000000000000000000000081526004016109c190612e8f565b60405180910390fd5b6006805480602002602001604051908101604052809291908181526020016000905b82821015610b565783829060005260206000209060040201604051806080016040529081600082018054610a1f906128f9565b80601f0160208091040260200160405190810160405280929190818152602001828054610a4b906128f9565b8015610a985780601f10610a6d57610100808354040283529160200191610a98565b820191906000526020600020905b815481529060010190602001808311610a7b57829003601f168201915b50505050508152602001600182018054610ab1906128f9565b80601f0160208091040260200160405190810160405280929190818152602001828054610add906128f9565b8015610b2a5780601f10610aff57610100808354040283529160200191610b2a565b820191906000526020600020905b815481529060010190602001808311610b0d57829003601f168201915b5050505050815260200160028201548152602001600382015481525050815260200190600101906109ec565b50505050905090565b60068181548110610b6f57600080fd5b9060005260206000209060040201600091509050806000018054610b92906128f9565b80601f0160208091040260200160405190810160405280929190818152602001828054610bbe906128f9565b8015610c0b5780601f10610be057610100808354040283529160200191610c0b565b820191906000526020600020905b815481529060010190602001808311610bee57829003601f168201915b505050505090806001018054610c20906128f9565b80601f0160208091040260200160405190810160405280929190818152602001828054610c4c906128f9565b8015610c995780601f10610c6e57610100808354040283529160200191610c99565b820191906000526020600020905b815481529060010190602001808311610c7c57829003601f168201915b5050505050908060020154908060030154905084565b600260009054906101000a900473ffffffffffffffffffffffffffffffffffffffff1673ffffffffffffffffffffffffffffffffffffffff163373ffffffffffffffffffffffffffffffffffffffff1614610d3f576040517f08c379a0000000000000000000000000000000000000000000000000000000008152600401610d3690612786565b60405180910390fd5b804210610d81576040517f08c379a0000000000000000000000000000000000000000000000000000000008152600401610d7890612efb565b60405180910390fd5b8060018190555050565b6000600880549050905090565b6000600960003373ffffffffffffffffffffffffffffffffffffffff1673ffffffffffffffffffffffffffffffffffffffff16815260200190815260200160002060009054906101000a900460ff16905090565b600260009054906101000a900473ffffffffffffffffffffffffffffffffffffffff1673ffffffffffffffffffffffffffffffffffffffff163373ffffffffffffffffffffffffffffffffffffffff1614610e7c576040517f08c379a0000000000000000000000000000000000000000000000000000000008152600401610e7390612786565b60405180910390fd5b600460008273ffffffffffffffffffffffffffffffffffffffff1673ffffffffffffffffffffffffffffffffffffffff16815260200190815260200160002060009054906101000a900460ff16610f08576040517f08c379a0000000000000000000000000000000000000000000000000000000008152600401610eff90612f8d565b60405180910390fd5b6000600460008373ffffffffffffffffffffffffffffffffffffffff1673ffffffffffffffffffffffffffffffffffffffff16815260200190815260200160002060006101000a81548160ff02191690831515021790555060005b6001600380549050610f759190612867565b8110156110b1578173ffffffffffffffffffffffffffffffffffffffff1660038281548110610fa757610fa661289b565b5b9060005260206000200160009054906101000a900473ffffffffffffffffffffffffffffffffffffffff1673ffffffffffffffffffffffffffffffffffffffff160361109e57600360016003805490506110019190612867565b815481106110125761101161289b565b5b9060005260206000200160009054906101000a900473ffffffffffffffffffffffffffffffffffffffff16600382815481106110515761105061289b565b5b9060005260206000200160006101000a81548173ffffffffffffffffffffffffffffffffffffffff021916908373ffffffffffffffffffffffffffffffffffffffff1602179055506110b1565b80806110a990612c8f565b915050610f63565b5060038054806110c4576110c3612cd7565b5b6001900381819060005260206000200160006101000a81549073ffffffffffffffffffffffffffffffffffffffff021916905590558073ffffffffffffffffffffffffffffffffffffffff167f6870c940cab428231ba488bb666ecfb340724efd013cd7d4eaa6b26aa97f280860405160405180910390a250565b6000600a600083815260200190815260200160002060009054906101000a900460ff169050919050565b600260009054906101000a900473ffffffffffffffffffffffffffffffffffffffff1673ffffffffffffffffffffffffffffffffffffffff163373ffffffffffffffffffffffffffffffffffffffff16146111f9576040517f08c379a00000000000000000000000000000000000000000000000000000000081526004016111f090612786565b60405180910390fd5b426001819055507fcaf5a1a570fb863e8d535989307b44a9f546978ff5f22d3129b4c960fd1313ba60405160405180910390a1565b611236611e7f565b600154421061127a576040517f08c379a000000000000000000000000000000000000000000000000000000000815260040161127190612ff9565b60405180910390fd5b600960003373ffffffffffffffffffffffffffffffffffffffff1673ffffffffffffffffffffffffffffffffffffffff16815260200190815260200160002060009054906101000a900460ff16158061131c5750600460003373ffffffffffffffffffffffffffffffffffffffff1673ffffffffffffffffffffffffffffffffffffffff16815260200190815260200160002060009054906101000a900460ff165b61132557600080fd5b60008260200151604001519050600a60008460000151815260200190815260200160002060009054906101000a900460ff168061138057506007600082815260200190815260200160002060009054906101000a900460ff16155b156113c95761138d611e7f565b600081600001901515908115158152505060405180606001604052806035815260200161305f603591398160200181905250809250505061157d565b826020015160600180518091906113df90612c8f565b8152505060088390806001815401808255809150506001900390600052602060002090600502016000909190919091506000820151816000015560208201518160010160008201518160000190816114379190612d3a565b50602082015181600101908161144d9190612d3a565b506040820151816002015560608201518160030155505050506001600a60008560000151815260200190815260200160002060006101000a81548160ff0219169083151502179055506001600960003373ffffffffffffffffffffffffffffffffffffffff1673ffffffffffffffffffffffffffffffffffffffff16815260200190815260200160002060006101000a81548160ff0219169083151502179055507f70e4a8b937d3f9f46e73149f3089c364d8c27e56d72bf8e0ea1155101421ea35836000015184602001516000015185602001516020015160405161153593929190613019565b60405180910390a1611545611e7f565b60018160000190151590811515815250506040518060600160405280602f8152602001613094602f9139816020018190525080925050505b919050565b600080600680549050036115cb576040517f08c379a00000000000000000000000000000000000000000000000000000000081526004016115c290612e8f565b60405180910390fd5b600080600090505b60016006805490506115e59190612867565b8110156116585760068181548110611600576115ff61289b565b5b9060005260206000209060040201600201548403611645576006818154811061162c5761162b61289b565b5b9060005260206000209060040201600301549150611658565b808061165090612c8f565b9150506115d3565b5080915050919050565b6003818154811061167257600080fd5b906000526020600020016000915054906101000a900473ffffffffffffffffffffffffffffffffffffffff1681565b6000600154905090565b600260009054906101000a900473ffffffffffffffffffffffffffffffffffffffff1673ffffffffffffffffffffffffffffffffffffffff163373ffffffffffffffffffffffffffffffffffffffff161461173b576040517f08c379a000000000000000000000000000000000000000000000000000000000815260040161173290612786565b60405180910390fd5b6003819080600181540180825580915050600190039060005260206000200160009091909190916101000a81548173ffffffffffffffffffffffffffffffffffffffff021916908373ffffffffffffffffffffffffffffffffffffffff1602179055506001600460008373ffffffffffffffffffffffffffffffffffffffff1673ffffffffffffffffffffffffffffffffffffffff16815260200190815260200160002060006101000a81548160ff0219169083151502179055508073ffffffffffffffffffffffffffffffffffffffff167fcd902338c077954bb88183435a933f4d31a1251a6bc80aa0b0e6027111d6e8e860405160405180910390a250565b6000600260009054906101000a900473ffffffffffffffffffffffffffffffffffffffff1673ffffffffffffffffffffffffffffffffffffffff163373ffffffffffffffffffffffffffffffffffffffff1614905090565b600881815481106118a457600080fd5b9060005260206000209060050201600091509050806000015490806001016040518060800160405290816000820180546118dd906128f9565b80601f0160208091040260200160405190810160405280929190818152602001828054611909906128f9565b80156119565780601f1061192b57610100808354040283529160200191611956565b820191906000526020600020905b81548152906001019060200180831161193957829003601f168201915b5050505050815260200160018201805461196f906128f9565b80601f016020809104026020016040519081016040528092919081815260200182805461199b906128f9565b80156119e85780601f106119bd576101008083540402835291602001916119e8565b820191906000526020600020905b8154815290600101906020018083116119cb57829003601f168201915b5050505050815260200160028201548152602001600382015481525050905082565b611a12611e57565b600060068054905003611a5a576040517f08c379a0000000000000000000000000000000000000000000000000000000008152600401611a5190612e8f565b60405180910390fd5b60006006600081548110611a7157611a7061289b565b5b9060005260206000209060040201604051806080016040529081600082018054611a9a906128f9565b80601f0160208091040260200160405190810160405280929190818152602001828054611ac6906128f9565b8015611b135780601f10611ae857610100808354040283529160200191611b13565b820191906000526020600020905b815481529060010190602001808311611af657829003601f168201915b50505050508152602001600182018054611b2c906128f9565b80601f0160208091040260200160405190810160405280929190818152602001828054611b58906128f9565b8015611ba55780601f10611b7a57610100808354040283529160200191611ba5565b820191906000526020600020905b815481529060010190602001808311611b8857829003601f168201915b5050505050815260200160028201548152602001600382015481525050905060005b6001600680549050611bd99190612867565b811015611d8c57816060015160068281548110611bf957611bf861289b565b5b9060005260206000209060040201600301541115611d795760068181548110611c2557611c2461289b565b5b9060005260206000209060040201604051806080016040529081600082018054611c4e906128f9565b80601f0160208091040260200160405190810160405280929190818152602001828054611c7a906128f9565b8015611cc75780601f10611c9c57610100808354040283529160200191611cc7565b820191906000526020600020905b815481529060010190602001808311611caa57829003601f168201915b50505050508152602001600182018054611ce0906128f9565b80601f0160208091040260200160405190810160405280929190818152602001828054611d0c906128f9565b8015611d595780601f10611d2e57610100808354040283529160200191611d59565b820191906000526020600020905b815481529060010190602001808311611d3c57829003601f168201915b505050505081526020016002820154815260200160038201548152505091505b8080611d8490612c8f565b915050611bc7565b508091505090565b6000600460003373ffffffffffffffffffffffffffffffffffffffff1673ffffffffffffffffffffffffffffffffffffffff16815260200190815260200160002060009054906101000a900460ff16905090565b60008054905090565b600260009054906101000a900473ffffffffffffffffffffffffffffffffffffffff1681565b508054611e23906128f9565b6000825580601f10611e355750611e54565b601f016020900490600052602060002090810190611e539190611e9b565b5b50565b6040518060800160405280606081526020016060815260200160008152602001600081525090565b6040518060400160405280600015158152602001606081525090565b5b80821115611eb4576000816000905550600101611e9c565b5090565b6000604051905090565b600080fd5b600080fd5b6000819050919050565b611edf81611ecc565b8114611eea57600080fd5b50565b600081359050611efc81611ed6565b92915050565b600060208284031215611f1857611f17611ec2565b5b6000611f2684828501611eed565b91505092915050565b600080fd5b600080fd5b6000601f19601f8301169050919050565b7f4e487b7100000000000000000000000000000000000000000000000000000000600052604160045260246000fd5b611f8282611f39565b810181811067ffffffffffffffff82111715611fa157611fa0611f4a565b5b80604052505050565b6000611fb4611eb8565b9050611fc08282611f79565b919050565b600067ffffffffffffffff821115611fe057611fdf611f4a565b5b611fe982611f39565b9050602081019050919050565b82818337600083830152505050565b600061201861201384611fc5565b611faa565b90508281526020810184848401111561203457612033611f34565b5b61203f848285611ff6565b509392505050565b600082601f83011261205c5761205b611f2f565b5b813561206c848260208601612005565b91505092915050565b6000806040838503121561208c5761208b611ec2565b5b600083013567ffffffffffffffff8111156120aa576120a9611ec7565b5b6120b685828601612047565b925050602083013567ffffffffffffffff8111156120d7576120d6611ec7565b5b6120e385828601612047565b9150509250929050565b600081519050919050565b600082825260208201905092915050565b6000819050602082019050919050565b600081519050919050565b600082825260208201905092915050565b60005b83811015612153578082015181840152602081019050612138565b60008484015250505050565b600061216a82612119565b6121748185612124565b9350612184818560208601612135565b61218d81611f39565b840191505092915050565b6121a181611ecc565b82525050565b600060808301600083015184820360008601526121c4828261215f565b915050602083015184820360208601526121de828261215f565b91505060408301516121f36040860182612198565b5060608301516122066060860182612198565b508091505092915050565b600061221d83836121a7565b905092915050565b6000602082019050919050565b600061223d826120ed565b61224781856120f8565b93508360208202850161225985612109565b8060005b8581101561229557848403895281516122768582612211565b945061228183612225565b925060208a0199505060018101905061225d565b50829750879550505050505092915050565b600060208201905081810360008301526122c18184612232565b905092915050565b600082825260208201905092915050565b60006122e582612119565b6122ef81856122c9565b93506122ff818560208601612135565b61230881611f39565b840191505092915050565b61231c81611ecc565b82525050565b6000608082019050818103600083015261233c81876122da565b9050818103602083015261235081866122da565b905061235f6040830185612313565b61236c6060830184612313565b95945050505050565b600060208201905061238a6000830184612313565b92915050565b60008115159050919050565b6123a581612390565b82525050565b60006020820190506123c0600083018461239c565b92915050565b600073ffffffffffffffffffffffffffffffffffffffff82169050919050565b60006123f1826123c6565b9050919050565b612401816123e6565b811461240c57600080fd5b50565b60008135905061241e816123f8565b92915050565b60006020828403121561243a57612439611ec2565b5b60006124488482850161240f565b91505092915050565b600080fd5b600080fd5b60006080828403121561247157612470612451565b5b61247b6080611faa565b9050600082013567ffffffffffffffff81111561249b5761249a612456565b5b6124a784828501612047565b600083015250602082013567ffffffffffffffff8111156124cb576124ca612456565b5b6124d784828501612047565b60208301525060406124eb84828501611eed565b60408301525060606124ff84828501611eed565b60608301525092915050565b60006040828403121561252157612520612451565b5b61252b6040611faa565b9050600061253b84828501611eed565b600083015250602082013567ffffffffffffffff81111561255f5761255e612456565b5b61256b8482850161245b565b60208301525092915050565b60006020828403121561258d5761258c611ec2565b5b600082013567ffffffffffffffff8111156125ab576125aa611ec7565b5b6125b78482850161250b565b91505092915050565b6125c981612390565b82525050565b60006040830160008301516125e760008601826125c0565b50602083015184820360208601526125ff828261215f565b9150508091505092915050565b6000602082019050818103600083015261262681846125cf565b905092915050565b612637816123e6565b82525050565b6000602082019050612652600083018461262e565b92915050565b60006080830160008301518482036000860152612675828261215f565b9150506020830151848203602086015261268f828261215f565b91505060408301516126a46040860182612198565b5060608301516126b76060860182612198565b508091505092915050565b60006040820190506126d76000830185612313565b81810360208301526126e98184612658565b90509392505050565b6000602082019050818103600083015261270c8184612658565b905092915050565b7f4f6e6c792041646d696e2063616e20696e766f6b6520746869732066756e637460008201527f696f6e0000000000000000000000000000000000000000000000000000000000602082015250565b60006127706023836122c9565b915061277b82612714565b604082019050919050565b6000602082019050818103600083015261279f81612763565b9050919050565b7f596f752063616e206f6e6c792072656d6f766520616c7265616479206164646560008201527f642063616e646964617465730000000000000000000000000000000000000000602082015250565b6000612802602c836122c9565b915061280d826127a6565b604082019050919050565b60006020820190508181036000830152612831816127f5565b9050919050565b7f4e487b7100000000000000000000000000000000000000000000000000000000600052601160045260246000fd5b600061287282611ecc565b915061287d83611ecc565b925082820390508181111561289557612894612838565b5b92915050565b7f4e487b7100000000000000000000000000000000000000000000000000000000600052603260045260246000fd5b7f4e487b7100000000000000000000000000000000000000000000000000000000600052602260045260246000fd5b6000600282049050600182168061291157607f821691505b602082108103612924576129236128ca565b5b50919050565b60008190508160005260206000209050919050565b6000815461294c816128f9565b61295681866122c9565b945060018216600081146129715760018114612987576129ba565b60ff1983168652811515602002860193506129ba565b6129908561292a565b60005b838110156129b257815481890152600182019150602081019050612993565b808801955050505b50505092915050565b600060408201905081810360008301526129dd818561293f565b905081810360208301526129f1818461293f565b90509392505050565b600081549050612a09816128f9565b9050919050565b60006020601f8301049050919050565b600082821b905092915050565b600060088302612a5d7fffffffffffffffffffffffffffffffffffffffffffffffffffffffffffffffff82612a20565b612a678683612a20565b95508019841693508086168417925050509392505050565b6000819050919050565b6000612aa4612a9f612a9a84611ecc565b612a7f565b611ecc565b9050919050565b6000819050919050565b612abe83612a89565b612ad2612aca82612aab565b848454612a2d565b825550505050565b600090565b612ae7612ada565b612af2818484612ab5565b505050565b5b81811015612b1657612b0b600082612adf565b600181019050612af8565b5050565b601f821115612b5b57612b2c8161292a565b612b3584612a10565b81016020851015612b44578190505b612b58612b5085612a10565b830182612af7565b50505b505050565b600082821c905092915050565b6000612b7e60001984600802612b60565b1980831691505092915050565b6000612b978383612b6d565b9150826002028217905092915050565b818103612bb5575050612c8d565b612bbe826129fa565b67ffffffffffffffff811115612bd757612bd6611f4a565b5b612be182546128f9565b612bec828285612b1a565b6000601f831160018114612c1b5760008415612c09578287015490505b612c138582612b8b565b865550612c86565b601f198416612c298761292a565b9650612c348661292a565b60005b82811015612c5c57848901548255600182019150600185019450602081019050612c37565b86831015612c795784890154612c75601f891682612b6d565b8355505b6001600288020188555050505b5050505050505b565b6000612c9a82611ecc565b91507fffffffffffffffffffffffffffffffffffffffffffffffffffffffffffffffff8203612ccc57612ccb612838565b5b600182019050919050565b7f4e487b7100000000000000000000000000000000000000000000000000000000600052603160045260246000fd5b6000612d1182611ecc565b9150612d1c83611ecc565b9250828201905080821115612d3457612d33612838565b5b92915050565b612d4382612119565b67ffffffffffffffff811115612d5c57612d5b611f4a565b5b612d6682546128f9565b612d71828285612b1a565b600060209050601f831160018114612da45760008415612d92578287015190505b612d9c8582612b8b565b865550612e04565b601f198416612db28661292a565b60005b82811015612dda57848901518255600182019150602085019450602081019050612db5565b86831015612df75784890151612df3601f891682612b6d565b8355505b6001600288020188555050505b505050505050565b60006040820190508181036000830152612e2681856122da565b90508181036020830152612e3a81846122da565b90509392505050565b7f546865726520617265206e6f20636f6e74657374616e74730000000000000000600082015250565b6000612e796018836122c9565b9150612e8482612e43565b602082019050919050565b60006020820190508181036000830152612ea881612e6c565b9050919050565b7f43616e27742075736520612074696d6520696e20746865207061737400000000600082015250565b6000612ee5601c836122c9565b9150612ef082612eaf565b602082019050919050565b60006020820190508181036000830152612f1481612ed8565b9050919050565b7f596f752063616e206f6e6c792072656d6f766520616c7265616479206164646560008201527f64206f6666696369616c73000000000000000000000000000000000000000000602082015250565b6000612f77602b836122c9565b9150612f8282612f1b565b604082019050919050565b60006020820190508181036000830152612fa681612f6a565b9050919050565b7f536f7272792c20656c656374696f6e2068617320656e64656400000000000000600082015250565b6000612fe36019836122c9565b9150612fee82612fad565b602082019050919050565b6000602082019050818103600083015261301281612fd6565b9050919050565b600060608201905061302e6000830186612313565b818103602083015261304081856122da565b9050818103604083015261305481846122da565b905094935050505056fe436974697a656e2068617320616c726561647920766f746564206f722063616e64696461746520646f6573206e6f74206578697374596f752068617665207375636365737366756c6c7920766f7465642e20476f6420626c657373204e69676572696121a2646970667358221220943f8a1dbe9b70850cc98f525c7b80d9915d0798a0786b40206d6c404c1e2ae564736f6c63430008110033",
  "linkReferences": {},
  "deployedLinkReferences": {}
}